:020000020000FC
:1000000000C08FE98DBF8EE088BB83E187BB479A34
:10001000FF27EDE1F083EA95EAF7E0E6F193EE39A8
:10002000E9F770D0C49A6ED0C49A05D030D04CD0C5
:1000300055D06CD0FACFB39B07C0583C18F455305C
:1000400008F017D055270895539511F45A9508953F
:10005000583CC9F71AE0C49A55D0C49853D01A95A1
:10006000D1F7C098C19A33274427442420E0C4988C
:100070000895203021F4C09A21E034E6089522301A
:1000800029F4442319F4C19823E035E00895213080
:1000900039F43323C1F4B29916C022E04EE3089537
:1000A000233029F4332379F4C19A24E008952430CD
:1000B00029F4B29B08C025E04BEB0895253019F4D4
:1000C000442309F4CECF0895332309F03A9544230D
:1000D00021F0842D877009F44A950895842D2030ED
:1000E00011F48E7F09C0213011F4807105C02230D7
:1000F00011F4C49A05C08E7111F0C49801C0C49A5D
:100100004394089504E002D00A95E9F796E589EB57
:0A0110008A95F1F79A95D9F7089542
:00000001FF
